:020000040800F2
:10000000008000204D540008334600083F46000899
:10001000454600084B460008514600080000000015
:10002000000000000000000000000000574600082B
:1000300063460008000000006F4600087B46000889
:100040009D5400089D540008894600089D540008EE
:100050009D5400089D5400089D4600089D540008CA
:100060009D5400089D5400089D5400089D540008AC
:100070009D5400089D5400089D540008AD4600089A
:100080009D5400089D5400089D5400089D5400088C
:100090009D5400089D5400089D5400089D5400087C
:1000A0009D5400089D5400089D5400089D5400086C
:1000B0009D5400089D5400089D5400089D5400085C
:1000C0009D5400089D5400089D5400089D5400084C
:1000D0009D5400089D540008C1460008D5460008FC
:1000E0009D5400089D540008E94600089D540008EE
:1000F0009D5400089D5400089D5400089D5400081C
:100100009D5400089D540008FD4600089D540008B9
:100110009D5400089D5400089D5400089D540008FB
:100120009D5400089D5400089D5400089D540008EB
:080130009D5400089D540008D5
:1001400010B5054C237833B9044B13B10448AFF311
:1001500000800123237010BD00010020000000007A
:10016000B42D010808B5034B1BB103490348AFF395
:10017000008008BD0000000004010020B42D01082B
:10018000F0B583B00400874D2878002801D01120F5
:10019000FEBD002C01D11320FEBD6E463B20307108
:1001A000684605F037FA01000DD130793B2801D0BF
:1001B0001220FEBD291D6C2005F072F96968002926
:1001C00001D0020001D010217EE00800643001F06F
:1001D0003FF80700686803D005F07CF93800FEBDE1
:1001E0007178090232781143818400230221627BF5
:1001F000022A18D103228260AD4AC26003612269DB
:100200008262277E302287546069AA4A90426868D9
:1002100006D1FA225200C26203273122875402E03B
:10022000C362312281540122607B01280CD16868AD
:10023000A14F8760C36003613223C254F07800028B
:10024000B37818436B68988620686B68186060689C
:100250006B685860607B6B685626985568685830A4
:10026000A3680360237B012B01D1642303E0022BED
:1002700002D196239B008380237B0374A3683C26D2
:100280009B4FBB420ED1C6809A4B0381607B0428F2
:1002900000D12970607B012801D0022800D12A708A
:1002A0000020FEBD944FBB4204D10823C380FA2333
:1002B000DB00EAE7914FBB4202D1C6807C4BE4E70A
:1002C000686805F007F9142100F062FAFEBD70B508
:1002D00000250024334E3078002801D1212070BD44
:1002E000706805F0F7F8010000D020243570210077
:1002F00000F04EFA70BD3EB5069C012C01D10125DF
:1003000000E00025002801D133203EBD0D2901DB8E
:1003100030203EBD002A03D1012C01D131203EBD49
:100320000295019300920B00020001211D484068D4
:1003300000F00EFB3EBD1FB502240443012B06D185
:1003400001206B461C73002904D134200CE00020EE
:100350006B461C73029001920091002303AA0021B6
:100360001048406800F0F4FA04B010BDE0B5012870
:1003700001DD35200EBD002802D10321072303E053
:10038000012801D1042105230020029002200190C0
:1003900000200090DBB20022C9B20248406800F0A1
:1003A000D7FA0EBD1C01002080B5052A1FD801A375
:1003B0009B5C9F440416262C383200BFBAA2026010
:1003C000002901D012200870002002BD05F03EFA7D
:1003D0000100F9D05C2100F0DBF902BD05F052FF0D
:1003E000F6E701F0C3F8F3E701F058FBF0E75D2111
:1003F0000020F0E738B50C00A74D2978012930D14D
:10040000696802688A604268CA6080680861C005DD
:1004100009D5886D394A904205D108005830344AD0
:100420000260344A02815620085C01280AD1080083
:1004300000F04FF96968C886002801D1412032BD1B
:1004400032200C5468685621415C022907D181682A
:10045000002902D0C068062801D2402032BD022007
:100460002870002032BDF8B507000C008A4E3078A5
:10047000002801D05820F2BD05F08AFC050001D00B
:1004800057210DE0380005F04BFE050004D1200097
:1004900005F0CEFD050006D005F040FD57212800EF
:1004A00000F076F9F2BD032030700020F2BD0000AC
:1004B00088130000E0930400FF01000038B5764C7B
:1004C0002078032801D05A2032BD05F017FE002500
:1004D000010001D0257004E005F020FD0100257029
:1004E00003D0592100F054F932BD002032BD000084
:1004F00000EE020008520000D4300000A08C000082
:10050000FEB505000E0002A865A10C68046001D1CB
:100510005320FEBD0D2A01DB5220FEBD5E4C20782B
:10052000022801D05120FEBD032020700020616808
:1005300009186427C95D02AF3F5CB9420ED1401C67
:100540000428F4DB01930020009013003200012105
:10055000606800F0B9FA010002D0FEBD5020FEBD77
:10056000606800F0E1F9010003D0542100F010F9B7
:10057000FEBD002D04D10021606800F01FFE0500C3
:100580002A000021606800F0BBFB010002D10220BC
:1005900020700020FEBD0000F8B50D0017001E0001
:1005A000694600BF3FA213680B603B4C21780229CB
:1005B00001D05620F2BD042121700021626852183A
:1005C0006423D25C6B465B5C9A4210D1491C0429BF
:1005D000F4DB002802D1606800F038FE012302003D
:1005E0003100280000F04CFD010002D0F2BD552082
:1005F000F2BD3A002900606800F06AFD02219B28E4
:1006000000D12170020006D160686222805A069AE9
:10061000108021700020F2BD002101701E490A786F
:10062000002A06D0496856228A5C022A01D109694B
:1006300001700020704780B500F00AFE02BD38B599
:10064000050000F0AAFF04000DD1280000F0AEFF65
:10065000040004D000F0A3FF5B21200004E000F0C0
:100660009EFF040003D05B2100F092F832BD002011
:1006700032BD80B50949884201DBB12002BD401C72
:1006800080B201F035F9010003D0B02100F080F80C
:1006900002BD002002BD00001C010020FF0F000071
:1006A00098BADCFE98BADCFE56322E382E315F53F3
:1006B000455F46444C5F4D4F4E0000000100C87836
:1006C00002028878024348780002097808435040C3
:1006D000704720B5030000220020002185005D192D
:1006E000AD68CD40ED0700D5521C491C2029F5DB33
:1006F000401C0328F1DB0620424390B220BDB0B578
:10070000040000250027481E062101F0EBFB401CD9
:10071000C0B20022874216D00023390081420ED099
:100720009700E719BF68DF40FF0705D5491CC9B22C
:10073000884201D15501ED185B1C202BEEDB0F0028
:10074000521C032AE6DBE8B2B0BDF0B50C00050090
:100750005835AE88806D310001F0B2FB0700288962
:10076000310001F0BFFB381AE9886143401A80B2BA
:10077000F0BD30B502000C0015005C35A8885C2186
:10078000515A01F0AFFB69884C43001980B230BD6B
:100790000202C8B210437047F4B582B0040056207C
:1007A000205C491C0091C74F042801D0022847D182
:1007B000A08C002802D0791C884205DB2000643020
:1007C000FFF77CFF3840A0846846007A01281BD1DF
:1007D00001212000FFF7B9FF050001212000FFF7EC
:1007E000C8FF01232A000100A08C00F04BFDA0846B
:1007F000208320005630A18C028989186183A18C46
:100800000089081AA0831BE0002526000021300083
:10081000FFF79BFF040000213000FFF7AAFF012330
:1008200022000100B08C00F02DFDB08431001831A1
:100830006A0088526D1CEDB200988542E6DB3400F8
:100840005620205C012858D1A08E002802D0791CA7
:10085000884205DB20006430FFF730FF0740A786A1
:10086000A08C002801D0802806DB20006430FFF730
:1008700025FF4006400EA0846846007A01281ED15C
:100880000123E28E521D92B20821A08E00F0FAFCE4
:10089000A086002326220421A08C00F0F3FCA08473
:1008A000A08E2087A08E401C6087A08E401EA0874F
:1008B000A08C2083A08C6083A08CA083F7BD002532
:1008C0000123E28E921D92B20721A08E00F0DAFC85
:1008D000A086002326220421A08C00F0D3FCA08453
:1008E0006800A18E22181187A18C220018321152A3
:1008F0006D1CEDB200988542E2DBF7BD026849004D
:100900004118098B5C23C35A59435118836D5B0806
:10091000C91A914201D3012101E00021C943826A31
:10092000C06A41435018704780B56946828C0A708E
:10093000828C120A4A705622825C012A04D1828E6D
:100940008A70808E000AC870684604F075FE02BD89
:10095000F2B586B005000027039700260EA80078A0
:100960000490012800D101267A480078022801D09D
:100970006020A5E003207749087054216F540224B9
:100980000D980028694601D10F7200E00C720196A3
:100990006846007A00906846017E280000F094F8CE
:1009A0000100E6D12800FFF7BFFF002802D00102B6
:1009B000612070E0280054308078022805D1E86872
:1009C00003902869FF2188432861039B9BB26846F6
:1009D000027A0EA80178280000F0F1F901003ED15A
:1009E000002E41D004205B4908700EA802780C99B3
:1009F000280000F020FB010001D09B2830E0049883
:100A0000012831D1032053490870022004F0A6FDCB
:100A1000002802D0010264203DE0019000900823EC
:100A200000220221280000F04FF8010048D12800E0
:100A3000FFF77AFF002802D0010262202BE0280095
:100A400054308078022801D143480390039B9BB225
:100A500000220021280000F0B2F9010004D07E2815
:100A60002ED13C490C702BE05420285C012824D165
:100A700054202F54019700970523002204212800B9
:100A800000F022F801001BD12800FFF74DFF0028DD
:100A900003D001026320084312E02800543080781C
:100AA000022801D1E8680390039B9BB20222002137
:100AB000280000F084F9010002D1264804700020CB
:100AC00007B0F0BDFF07000070B582B004000D0054
:100AD000079E009600F058F801003AD1022D05DB80
:100AE0001E48E083623020841D482BE05520215CA5
:100AF0001CA0102912DA490041181C390988E18329
:100B00005521615C4900411810390988218455211B
:100B1000615C49004018001F008813E00A39891001
:100B20004900415AE1835521615C0A398910490025
:100B30004118898921845521615C0A39891049004D
:100B40004018008B6084320006992000FFF724FED5
:100B5000002076BD1C010020280A000067AF0000BD
:100B6000BEB100006BA08DA05FA311A64CA967AF1A
:100B7000E0A6D2A098A5BFA671A9C9AF34A002A3D0
:100B8000A3A52CA797A9BEB1F8B586B00500002093
:100B900000276C4620732C004434002914D002290D
:100BA00039D003D304295DD011D37CE00095694688
:100BB000097E884200DB9FE0009B3E33851DEDB23D
:100BC000165C5E55401CF4E7107820706BE003AAB9
:100BD000921C04A904A8801C04F086FC060002D024
:100BE000010292207EE0082020706846408A6070F2
:100BF0006846408A000AA0706846008AE07068462D
:100C0000008A000A20710398001460710398001490
:100C10000012A07147E003AA921C04A904A8801C3A
:100C200004F062FC060002D0010293205AE0092081
:100C300020706846408A60706846408A000AA0704A
:100C40006846008AE0706846008A000A20710398AE
:100C500000146071039800140012A071E08B6430DE
:100C6000E07120E0012703AA921C04A904A8801CBB
:100C700004F03AFC060002D00102952032E00A207E
:100C800020706846408AC82101F02CF960706846DF
:100C9000008AC82101F026F9A070039800140A21E7
:100CA00001F020F9E07000F078FC060018D128006F
:100CB0005530029028003E30019003A800903B0080
:100CC0000C9A6846017E200000F075FC060003D0F7
:100CD00000F065FC310204E000F061FC060003D086
:100CE00001029020084305E0207C6946097B01430E
:100CF0002174002007B0F0BD009D68460176D2E760
:100D0000F2B588B004001700002005F041F89725DF
:100D100000282DD1380005F003FA060020D1AA21C1
:100D200068460170417008A9097849006118CA8BAA
:100D3000120A8270C98BC17008A90B785521615CB9
:100D40000A1FD2B2011D20003E3000F0CDFA55201E
:100D5000225C6820215C684605F0F2F8060003D0AA
:100D600005F0DCF8300204E005F0D8F8060003D006
:100D700000020543280000E0002009B0F0BDF8B5EE
:100D80000400080017001D0005F002F8060015D148
:100D9000380005F0C5F9060007D12A003020215699
:100DA000052005F015FA060003D005F0B7F830006D
:100DB000F2BD05F0B3F8060000D10020F2BDF2B597
:100DC00086B01F0000260025019603966946097E1D
:100DD000012900D1039169468A7004005620205CE5
:100DE000012811D14E703220205C012811D1002A37
:100DF0000FD0039800280CD00A2004F05BFC0028D8
:100E000032D0010270200BE16846039901224A406A
:100E1000427038004BD05620205C022847D1380061
:100E200004F01CFC00281CD100212000FFF766FD07
:100E30006B4602003120215C2000FFF7A0FF002854
:100E400019D168460078002818D1A068401E854254
:100E50001CD2032004F082FB002817D00102792065
:100E6000DEE001027720DBE004F078FC0028D0D03F
:100E700001027120D4E001027620D1E068460078BA
:100E8000012803D104F058FC00283FD16D1CEDB2BD
:100E9000A1688D4203D2694609780129BFD1216931
:100EA0004A07520FC9084819C0001018206156207F
:100EB000205C022804D168460078012800D0B1E007
:100EC0000027684680780290401C04900025290085
:100ED000200000F073F9020029002000FFF710FF46
:100EE000010000D0A5E05620205C022802D1206934
:100EF000401C2061002D2AD15620205C6946097EC5
:100F000001290ED1022804D1132003E00102782028
:100F100086E0142004F0CEFB002818D001027520D2
:100F20007EE0012813D13220205C01280FD1E08E11
:100F3000049900F0D7FF0100142000F0C1FF80B237
:100F40000028019003D004F0B5FB002833D15620CF
:100F5000205C02280AD10298854207DA002D05D1CB
:100F6000FA20400104F07AFB002827D16846407837
:100F700004F0F4FA002824D16E1C5620205C0228CC
:100F800030D1029885422DDAF1B22000FFF7B6FC8D
:100F90006B4602003120215C2000FFF7F0FE0028A4
:100FA00012D168460078002814D104F0C5FB00284F
:100FB0000DD1012716E00102722031E001027B20F1
:100FC0002EE0010274202BE001027A2028E00102C9
:100FD0007C2025E00298401E854203D104F0ACFB42
:100FE00000281BD1F5B20498854202DA380000D1FE
:100FF0006DE75620205C01281AD13220205C0128A0
:1010000016D10198000413D00398002810D104F0E1
:10101000A5FB00280CD00102732001E001027D2015
:10102000084306E068460078002801D17E2000E0F1
:10103000002007B0F0BD70B504000D001600012EB1
:1010400007D104F08BFB002803D00102982008434D
:1010500070BD62695620205C022801D1222100E087
:1010600019213300012000F00BF8010007D12A00FC
:101070000121200000F02CF8010000D1002070BDFB
:10108000F2B504001700012004F082FEE0260028DB
:1010900001D0000217E0380005F042F8050004D145
:1010A000009804F007FB050002D004F037FF09E0C8
:1010B000012C0BD100F071FA050007D004F02EFFCF
:1010C00004F028FB280206433000F2BD0020F2BDE8
:1010D000F3B589B01700002402940026019400257E
:1010E0006A460999623104A805F034F8039068460D
:1010F000007801282ED10AA80078012814D100A96F
:10110000491C04A800F064FB0290002822D1684624
:10111000407801281BD1002104A840180079785498
:10112000491C082916DAF7E7012000217A5C04AB94
:101130005B5C9A4200D00020491C0F29F6DB09991C
:101140006222895E04F01AFB0190002802D1039804
:101150000028C5D004F0E2FE0400684600780028AC
:1011600002D004F0D7FA06000AA80078012802D1BC
:1011700000F015FA05009A20029900290DD1039973
:1011800000290AD1002C01D021020CE0310001D04D
:10119000310208E00199002902D00906090C02E099
:1011A000290002D02902084306E06846007800289A
:1011B00001D19B2000E000200BB0F0BDF8B5040089
:1011C0000D00002000216A00A21800925622A25CA5
:1011D00026005836042A01D0022A08D10098018B33
:1011E000B088414320684018A36D5B08C01A012AEB
:1011F0001FD10098008F811F89B22000FFF77FFA6E
:10120000070036890098008F401E062100F062FE1C
:101210000C48414370180099098B962292004A436A
:10122000811820684018084A5743C019A26D520817
:10123000801A002D05D162685118A26D5208891AD2
:101240006161F2BDA8610000E0930400406970474D
:1012500070B5050000F0A1F9992400280CD12800F0
:1012600000F09FF9060003D000F099F9300204E085
:1012700000F095F9060003D000020443200070BD81
:10128000002070BDF8B505000C001600012B03D13D
:10129000082014490A2202E005207F2106222B00A3
:1012A0006D466C806C462680002B00D10B001E0022
:1012B0001641012535401F00074101263E405B04D1
:1012C0001B0C6E4002D01D0001232B430B406C46CB
:1012D00024889C42E8DB6C466488A342E4DB180067
:1012E000F2BD00BFFF070000F6B583B006001F0087
:1012F0000024002A03D01146039811F019F9330095
:1013000000222AE01E0066432E43009C267000BF88
:1013100015A4615C1CE003998918009101932100D8
:10132000802300BF11A4BD006419645C009D2D786A
:10133000019EB65C1E42E5D0641EA441E40F1E006F
:1013400066432E43009C267007A4615C891CC9B2C9
:101350005B08E6D1019B0C00521C6946097C8A425D
:10136000D9DB05B0F0BD0000000001010000000065
:101370000001010000010001F1B58AB00026112A28
:1013800001DB022000E0012005011D700025019114
:1013900069460A701A78E9B291420FD20199895DC3
:1013A00002AAEFB2D15569460978491E8E4202D091
:1013B000761CF6B200E000266D1CEBE70A9B0200EB
:1013C00002A9180005F07AF80CB0E0BDF7B58AB0B4
:1013D0001E00139C149D159F684605F039F80B21DB
:1013E000681D11F0A5F8E078C0012871A078C0014F
:1013F000E17849080143E9706078C001A1784908A3
:101400000143A9702078C0016178490801436970DF
:10141000207840088021014329700122290002A878
:1014200005F04CF802A8017BFE220A400273310944
:101430004173002F02D110220A43427312993201E4
:101440000B051B0F13438373C173E078C001287130
:10145000A078C001E17849080143E9706078C001D3
:10146000A17849080143A9702078C0016178490832
:10147000014369702078400828700121280005F098
:1014800081F8012202A906A805F054F800220A9862
:101490000B990CAB1B7805E006ACA45C8D5C654039
:1014A0008554521C9A42F7DB0DB0F0BD082221236F
:1014B00003404108202B01D0012B02D180204000A5
:1014C00000E000200843521EF1D180B27047FEB503
:1014D00005000C00684604F0BBFFB849227860782C
:1014E000000210436A4612885043084000D10800A9
:1014F0000026FFF7DBFF721CA9190B780700D74005
:101500005F400F70691C89190F78012393405B1E9F
:1015100003409C4607239A1B634693407B400B7015
:10152000761C082EE5DB0026FFF7C0FF721CA91908
:101530004B7A0700D7405F404F728F7A0123934068
:101540005B1E03409C4607239A1B634693407B40E7
:101550008B72761C052EE7DBFFF7A8FFA97B761CB4
:10156000F0404840A8730020E873F7BD70B505004F
:101570000E0005F03DF80200914C92A120000A30C7
:1015800011F01CF8002E01D1472070BD2C600A30EC
:101590003070002070BD0020704700207047002090
:1015A000704780B505F02EF8002002BD80B505F02B
:1015B00045F8002002BDF1B598B00D0014001F00E1
:1015C00002200F9010A8202110F0B2FF0AA81421C9
:1015D00010F0AEFF06A804F03BFF6846068B06A895
:1015E0004088099006A800796946487405F046F8D5
:1015F0000090012F05D1002801D14920DCE005250C
:101600000024761C3005000D0890009801281AD19E
:101610000898002804D16846407C401C69464874FC
:10162000380010D1089800280BD0099800280AD05B
:1016300008980999491C00F063FC491E8941C90FAB
:1016400002E0012100E000211E98017060012021CC
:1016500008402E001F9C07D118990978890108437A
:1016600080210143217023E0012D01D100210BE0F5
:10167000691E0422521B4B109B0F591889108900B8
:1016800051188A1CD2B20F92890108432070189811
:1016900000280DD00021A31D02E0425C5A54491CD1
:1016A000A942FADB1890012F02D16846407CA07253
:1016B0002078F021014008980004000E08432070B3
:1016C0000898607005A804F09DFF0020A21C05A9E1
:1016D000095C1154401C0428F9DB0098012822D130
:1016E000002F20D103900AA8029005A80190089825
:1016F00080B200906846437C2A001899A01DFFF72D
:1017000065FE0AA86946497C01700021431C625CA1
:101710005A54491CC9B2AA1D9142F8DB04ABEA1D18
:10172000D2B20AA903E004ABAA1DD2B2210010A8CC
:10173000FFF722FE00210F980AE010AA6B461B7CDF
:101740005B18D218103A1278A31D6F18DA55491C8D
:101750008142F2DB209A2B189B1D1370002100267A
:101760000FE0080009E0205C0002484080B2082732
:1017700041000004F5D5144848407F1EF8D101000F
:10178000761CF0B2DFB2B842EDD31048484080B2C8
:10179000010ADBB2E154611C1378C8541078801D33
:1017A000107006A808990180099941806946497C12
:1017B000017104F061FE002019B0F0BDFF010000CE
:1017C000000000202573000021100000FFFF000032
:1017D000F2B590B0070006A804F03AFE06A801880A
:1017E0006A46D182007969460875002510990D7006
:1017F00004A804F007FF04A93800FFF768FE0020E2
:1018000001260021002200BF42A39B5CBC5CC440B7
:10181000344063434B401900521C0E2AF3DD00BFD5
:1018200040A2C9B2515C79180A7801238340534021
:101830000B70401C0828E4DB002000213A1DCBB2CD
:10184000D25C5040C0B208224300000602D52F20CF
:10185000584000E01800521EF6D1491CCAB20A2AAC
:10186000ECD3B97BC0B281423FD108AC04A8017867
:101870002170417861708278A270C278E2706A4605
:10188000D28A22716A46D28A120A627100223D000F
:101890002B1D9B5CA718BB71521C082AF8DB007833
:1018A000A073E173012208A908A804F007FE287BB1
:1018B0002178884219D1687B6178884215D11098C7
:1018C000067004F0DBFE01280FD10020039008A869
:1018D000029004A801906846C08A00906846037D83
:1018E0000822291D281DFFF771FD002011B0F0BD51
:1018F0001CB5040004F0C2FE002801D1482016BD2A
:10190000684604F0A5FD6846448004F0B5FD00205B
:1019100016BD00000102040803060C0B050A070EA1
:101920000F0D09000F0001040208050A030E090744
:10193000060D0B0CFF22F632904201DB802070472F
:10194000B3480860002070470020704710B51300AE
:101950000024002905D0022909D004D3032909D085
:101960000CE002000BE00200FA20800004E002001C
:10197000A84801E00200A848424300E08224180081
:1019800006D0A6480360A649100004F0ADF800E0B8
:101990008224200010BD80B504F0CEF8002002BDE6
:1019A000FEB582B00100002500226846007A00E002
:1019B000521C8242FCDB072801DB842061E0994C49
:1019C0006560A56000220CE0D300E61882277F0046
:1019D000F619CB181F6837601F7937715B797371FF
:1019E000521C0600B242EFDB019104996A46127B59
:1019F0009A235B00E718386020009C300090056057
:101A0000B9603A7101231022A4204000211820005F
:101A10000C3000F020F902230D22C42040002118D0
:101A200020003C3000F017F903230B22DE20400099
:101A3000211820006C3000F00EF92560002201987A
:101A40000BE011016118A43180231B060B608D602F
:101A50000D71D300C358CB60521CB242F1DB3D6123
:101A6000714803F081FF8220400020180099096826
:101A7000C900405803F0DEFF03F0C4FF03F0F0FF9D
:101A8000002005B0F0BD80B568480068012803D18A
:101A900003F0CAFF03F096FF002002BDD5A202604A
:101AA000002901D1862070470E2008700020704761
:101AB000FEB501005B4C2068401C206020000C300B
:101AC00000F002F92068FF213831884200D09EE002
:101AD0006068401C60600025256084204000261856
:101AE000001F20180290481C2018019020009C30F4
:101AF00000902000A43000990968090141182000D5
:101B00000C3000F002F9002874D101980078002808
:101B100046D1A068002801D16068A060F16A6068C1
:101B2000A268801A884269D38022120600200BE046
:101B30000301E318A4339F68002F04D01B689A4266
:101B400001DA05001A00401C8842F1DB009845606C
:101B5000E800201882214900471828012518A435DB
:101B600038792979884204D0787900280ED08842C3
:101B70000CD103F07BFF2B683A682979002003F031
:101B80007BFF2A6812B22979386830E020000C30D7
:101B900000F080F8F26A0299009800F049F829E014
:101BA0000098007B3178814204D07178002921D0DF
:101BB00081421FD101200199C86003F057FF0098AE
:101BC000006801016118A4310B68029AC000125824
:101BD0000979012003F050FF0098006801016118A5
:101BE000A4310A6812B20979029BC0001858019BFF
:101BF0005B68984701980078002804D1F26A02993E
:101C0000009800F015F820000C3000F043F8F7BD04
:101C10002401002060EA000080EE36005804002015
:101C2000D11D000818030020B11A00085C04002030
:101C300070B504000D00160003F0F6FE2068401C8D
:101C4000B04200D100202060C000285803F0F2FE0E
:101C500003F0D8FE70BD38B5040015006160256042
:101C600024202354FF203830290000F03BF968433A
:101C7000A0610020E061A06080210906E1600021F0
:101C8000C9432161606120622A000021606800F080
:101C9000A9F831BD70B5002500240600302060434E
:101CA0003018856080210906C1600021C9430161A7
:101CB0004561C561056202680021406800F092F844
:101CC000641C032CEADB70BD70B5002200233024B5
:101CD0005C430419E569A669B54212DA6D1CE56139
:101CE000A5686E1CA6606668AD0075192E6876182A
:101CF0002E60A5682668B54203D1A26065696D1C97
:101D000065615B1C032BE2DB70BDF3B583B0002083
:101D100002900025002080242406039930226A4383
:101D20008E183168002208E073689700DB59C018EC
:101D30009C4201DA1C003261521C8A42F4DB001B17
:101D40000190491E009101270846716948438100AE
:101D500008180199401800996143884211DA3762E6
:101D60002000716900F0BEF8F0602000716900F099
:101D7000B9F8B06201987169009A514300F0B2F865
:101D8000F0626D1C022DC5DD0398006A0399096D90
:101D900040180399802289584018012812D1002246
:101DA0000499039830235343C3181C6A002C05D0B0
:101DB000DC680C6024241B5D0B718F60521C022AAE
:101DC00003DCEFE70020C0430290029805B0F0BDAD
:101DD00080B50348012141600068804701BD0000D3
:101DE00058040020002A02E00160001D521EFBD1B1
:101DF000704700004D4E5F4150495F56322E302EE5
:101E000030000000034613F8012B002AFBD1181AFA
:101E100001387047000000000000000000000000D2
:101E200001F0FF01102A2BDB10F0070F08D010F88B
:101E3000013B013A8B422DD010F0070F42B3F6D18F
:101E4000F0B441EA012141EA014122F007047FF0A8
:101E500000070023F0E80256083C85EA010586EAFF
:101E6000010685FA47F5A3FA87F586FA47F6A5FA3B
:101E700087F68EB9EED1F0BC01F0FF0102F0070247
:101E800032B110F8013B013A83EA010313B1F8D1F2
:101E90000020704701387047002D06BF35460338D3
:101EA000073815F0010F07D1013015F4807F02BF0C
:101EB000013015F4C03F0130F0BC0138704700BF5D
:101EC000002902D0B0FBF1F0704708B14FF0FF30AD
:101ED00000F01EB80029F8D00246B0FBF1F000FB7C
:101EE00011217047002902D090FBF1F070470028C3
:101EF000C8BF6FF00040B8BF4FF0004000F008B816
:101F00000029F4D0024690FBF1F000FB112170474C
:101F1000704700BF4FF0FF0C1CEAD0521EBF1CEAF6
:101F2000D15392EA0C0F93EA0C0F6FD01A4480EA57
:101F3000010C400218BF5FEA41211ED04FF0006340
:101F400043EA501043EA5111A0FB01310CF000406C
:101F5000B1F5000F3EBF490041EAD3715B0040EA92
:101F6000010062F17F02FD2A1DD8B3F1004F40EB62
:101F7000C25008BF20F00100704790F0000F0CF035
:101F8000004C08BF49024CEA502040EA51207F3AF9
:101F9000C2BFD2F1FF0340EAC250704740F40000D4
:101FA0004FF00003013A5DDC12F1190FDCBF00F0C5
:101FB00000407047C2F10002410021FA02F1C2F173
:101FC000200200FA02FC5FEA310040F1000053EA0F
:101FD0004C0308BF20EADC70704792F0000F00F05D
:101FE000004C02BF400010F4000F013AF9D040EA63
:101FF0000C0093F0000F01F0004C02BF490011F4F7
:10200000000F013BF9D041EA0C018FE70CEAD153F4
:1020100092EA0C0F18BF93EA0C0F0AD030F0004C74
:1020200018BF31F0004CD8D180EA010000F0004028
:10203000704790F0000F17BF90F0004F084691F0E6
:10204000000F91F0004F14D092EA0C0F01D1420220
:102050000FD193EA0C0F03D14B0218BF084608D1E9
:1020600080EA010000F0004040F0FE4040F4000033
:10207000704740F0FE4040F4400070474FF0FF0CC6
:102080001CEAD0521EBF1CEAD15392EA0C0F93EA0D
:102090000C0F69D0A2EB030280EA010C49024FEA5F
:1020A000402037D04FF0805343EA111143EA101318
:1020B0000CF000408B4238BF5B0042F17D024FF4D0
:1020C000000C8B4224BF5B1A40EA0C00B3EB510FAB
:1020D00024BFA3EB510340EA5C00B3EB910F24BF94
:1020E000A3EB910340EA9C00B3EBD10F24BFA3EB19
:1020F000D10340EADC001B0118BF5FEA1C1CE0D1E1
:10210000FD2A3FF650AF8B4240EBC25008BF20F093
:10211000010070470CF0004C4CEA50207F32C2BFE7
:10212000D2F1FF0340EAC250704740F400004FF084
:102130000003013A37E792F0000F00F0004C02BFB5
:10214000400010F4000F013AF9D040EA0C0093F07F
:10215000000F01F0004C02BF490011F4000F013BD9
:10216000F9D041EA0C0195E70CEAD15392EA0C0F41
:1021700008D142027FF47DAF93EA0C0F7FF470AF79
:10218000084676E793EA0C0F04D14B023FF44CAFBC
:1021900008466EE730F0004C18BF31F0004CCAD151
:1021A00030F000427FF45CAF31F000437FF43CAF8D
:1021B0005FE700BF42000ED2B2F1FE4F0BD34FF0EB
:1021C0009E03B3EB126209D44FEA002343F00043AD
:1021D00023FA02F070474FF00000704712F1610FD0
:1021E00001D1420202D14FF0FF3070474FF00000A2
:1021F000704700BF53B94AB9002908BF00281CBF67
:102200004FF0FF314FF0FF30FFF782BEADF1080C09
:102210006DE904CE00F006F8DDF804E0DDE9022304
:1022200004B070472DE9F047089E04468846002B0D
:102230004BD18A42154667D9B2FA82F24AB1C2F14D
:10224000200701FA02F320FA07F7954047EA03084E
:1022500094404FEA154E230CB8FBFEF71FFA85FC9D
:102260000EFB178843EA084307FB0CF1994209D992
:10227000EB1807F1FF3080F01B81994240F2188182
:10228000023F2B445B1AA4B2B3FBFEF00EFB1033EB
:1022900044EA034400FB0CFCA44509D92C1900F1C5
:1022A000FF3380F00781A44540F2048102382C44BA
:1022B00040EA0740A4EB0C0400271EB1D4400023E1
:1022C000C6E900433946BDE8F0878B4209D9002EA4
:1022D00000F0EB800027C6E9000138463946BDE82A
:1022E000F087B3FA83F7002F47D18B4202D38242A3
:1022F00000F2FA80841A61EB030301209846002E55
:10230000E0D0C6E90048DDE702B9FFDEB2FA82F2AA
:10231000002A40F08F80491B4FEA154E1FFA85F8BE
:102320000127B1FBFEFC230C0EFB1C1143EA014309
:1023300008FB0CF1994207D9EB180CF1FF3002D2DF
:10234000994200F2CD808446591AA3B2B1FBFEF047
:102350000EFB101443EA044408FB00F8A04507D91B
:102360002C1900F1FF3302D2A04500F2B6801846C6
:10237000A4EB080440EA0C409FE7C7F1200CBB40E7
:1023800022FA0CFE4EEA030E01FA07F420FA0CF5CD
:1023900021FA0CF34FEA1E482543B3FBF8F92C0C45
:1023A00008FB19331FFA8EFA44EA034309FB0AF4C7
:1023B0009C4202FA07F200FA07F10BD91EEB030365
:1023C00009F1FF3080F087809C4240F28480A9F1BF
:1023D000020973441B1BADB2B3FBF8F008FB1033CA
:1023E00045EA034400FB0AFAA24508D91EEB04049F
:1023F00000F1FF336BD2A24569D90238744440EA38
:102400000940A0FB0289A4EB0A044C45C2464B4696
:1024100054D351D0002E69D0B1EB0A0564EB03040C
:1024200004FA0CFCFD40FC404CEA0505C6E90054EA
:10243000002747E7C2F1200320FA03F7954001FA8D
:1024400002F021FA03F34FEA154E3843010CB3FBB7
:10245000FEF71FFA85F80EFB173341EA034107FB2D
:1024600008F38B4204FA02F407D9691807F1FF3C1C
:102470002FD28B422DD9023F2944CB1A81B2B3FB14
:10248000FEF00EFB103341EA034100FB08F38B42E0
:1024900007D9691800F1FF3C17D28B4215D90238D1
:1024A0002944C91A40EA07473BE73746304609E75F
:1024B0000746E7E61846FBE64145ABD2B8EB020A11
:1024C00069EB0E0201381346A4E76046E9E71846B7
:1024D00095E76746D1E781467CE702382C4447E719
:1024E000ACF1020C2B442FE7384608E73746E9E603
:1024F00080B500AF02F086F900F094FC00BF80BD0B
:1025000080B500AF4FF0FF300FF0B0F800BF80BDD6
:1025100080B584B000AF7860396001223968154811
:1025200000F0DAF87B68002B1BD0124B1B799BB2B2
:102530005B007B810F4B1B6803F17843DB0A7989D1
:102540000022184601F0C4FD0346002B01D00323EE
:102550000CE002220021074800F03BFBF860FB681A
:1025600004E0044800F0D3F8F860FB681846103720
:10257000BD4680BD540C002080B586B000AFF86029
:102580000B467A607B81074B7B617B695B7979893C
:102590007A68786900F0AEFA034618461837BD46E7
:1025A00080BD00BF540C002080B586B000AFF8603D
:1025B0000B467A607B812C4B7B617B69DB881946FB
:1025C0007B691B791A4613469B019B1A9B00994213
:1025D00007D27B897A681946786900F0F9F90346D1
:1025E0003EE07B695A797B691B799A4202D27B690A
:1025F0001B7900E000233B613969786900F00CFB2E
:102600000346002B01D005232AE0012239697869AD
:1026100000F0DFFA0346002B01D0042320E03B69E1
:10262000DAB27B695A717B690022DA807B692022E9
:102630001A817B897A681946786900F0C9F90346DE
:10264000002B01D004230BE07B893A691946786995
:1026500000F037F90346002B01D0042300E00223E9
:1026600018461837BD4680BD540C002080B584B094
:1026700000AF78603960174BFB60FB685A79FB68E4
:102680001B799A4202D2FB681B7900E00023BB60F1
:10269000B968F86800F0C0FA0346042B01D005239E
:1026A00013E0FB681B6803F17843DA0ABB68D018B3
:1026B000FB681B799BB23A68194601F009FD034695
:1026C000002B01D0032300E0002318461037BD463D
:1026D00080BD00BF540C002080B485B000AFF8600E
:1026E000B9601346FB71FB68BA681A60FB68FA7937
:1026F0001A71FB6800225A71FB680022DA80FB68BD
:1027000020221A8100BF1437BD4680BC704790B5A7
:1027100089B000AF78600123BB61C9E00023FB6191
:10272000BCE0F969786800F077FA0246BB69934229
:1027300040F0B080FB69002B05D07B681B791A46FE
:10274000FB69934209D1FB6901331946786800F0AF
:1027500063FA0346002B1BD09DE0FB69013B194641
:10276000786800F059FAF860FA68BB699A4203D0B9
:10277000FB68032B0CD08EE0FB69013B032219465A
:10278000786800F026FA0346002B01D0042394E079
:10279000FB69DAB27B685A717B681A68FB69DB02F5
:1027A000134420337B6100233B611AE07B69D3E94A
:1027B0000034B4F1FF3F08BFB3F1FF3F15D07B6891
:1027C000DB8801339AB27B68DA807B681B89083327
:1027D0009AB27B681A817B6908337B613B6901335C
:1027E0003B613B69FB2BE1D90AE000BF08E07B6855
:1027F000DB88FC339AB27B68DA80FB69013BFB61C2
:10280000FB69002B05D07B681B791A46FB69934254
:10281000EDD1BB69012B0AD1FA694FF40041786808
:1028200000F04FF80346002B01D0042345E07B68FD
:102830005A797B681B799A4202D27B681B7900E047
:102840000023BB60BB68FB611AE0F969786800F09F
:10285000E3F90346002B10D07B681B6803F1784333
:10286000DA0AFB69134400220121184601F030FC0A
:102870000346002B01D003231FE0FB690133FB61FA
:102880007B681B791A46BB681344FA699A42DCD309
:10289000002312E000BFFB690133FB617B681B79F9
:1028A0005B00FA699A42FFF43CAFBB690133BB613C
:1028B000BB69022B7FF632AF052318462437BD468D
:1028C00090BD80B588B000AFF8600B467A607B8120
:1028D000FB681B791A467B68934204D2FB681B791C
:1028E0005B00013B02E0FB681B79013BBB617B891C
:1028F000B3F5004F23D0BB697B607968F86800F0BE
:102900008BF978617B69022B02D07B69032B09D19B
:1029100004227968F86800F05CF90346002B01D0C6
:10292000042350E07B68002B09D0FB681B791A4612
:102930007B68934203D07B68013B7B60DDE700232B
:10294000FB612DE07B89FA699A4226D07B89B3F539
:10295000004F0BD1FB6999B2FB685B7907F110025C
:10296000F86800F0C7F80346002B16D0FB6999B24F
:1029700007F11002BB69F86800F0BCF80346002BB1
:102980000BD1FB699BB23A691946F86800F020F850
:102990000346002B01D0042315E0FB690133FB61E2
:1029A000FB681B791A4613469B019B1A9B001A462B
:1029B000FB699342C6D3FB685B7902221946F8682B
:1029C00000F007F9034618462037BD4680BD0000D9
:1029D0002DE9904888B000AFF8600B467A607B81A3
:1029E000FB681B89B3F5006F26D3FB685B797B61BD
:1029F0007B695C1C7969F86800F00EF903461A4699
:102A00002146F86800F0E5F80346002B01D00423C6
:102A100069E003227969F86800F0DBF80346002BCF
:102A200001D004235FE07B69DBB20133DAB2FB68DB
:102A30005A71FB6820221A817B89B3F5004F06D1B9
:102A40004FF000034FF00004C7E906342AE07B682A
:102A500019464FF000024FF0000B4FF0000C8C466F
:102A60004FF0000B7A891104214A0A4042F00042DB
:102A700011464FF000024BEA01034CEA0204C7E999
:102A80000634D7E9060100F0F0F803461FFA83FB8D
:102A90004FF0000CD7E906124BEA01034CEA02049E
:102AA000C7E90634FB681A68FB685B79DB021344EC
:102AB000FA68128913443B61D7E90623386901F0AB
:102AC000D7FA0346002B01D004230CE0FB681B89D6
:102AD00008339AB2FB681A81FB68DB8801339AB22B
:102AE000FB68DA80002318462037BD46BDE8908891
:102AF0000000FF3F2DE9904888B000AFF8607A6091
:102B00003B600B467B81FB681A683B68DB02134421
:102B1000BB614FF4FF63FB6144E0BA69FB69134496
:102B2000D3E90034C7E90434D7E90434B4F1FF3FF2
:102B300008BFB3F1FF3F32D0D7E9043423432ED08E
:102B4000D7E904124FF000034FF000040B0C43EAE6
:102B50000243140C43F6FF714FF0000201EA030B2D
:102B600002EA040C7B894FF00004A44508BF9B4592
:102B700015D1D7E9040100F078F803461A463B8ADC
:102B80009A420CD1D7E904124FF000034FF0000431
:102B9000130000241A467B681A60002314E0FB69C6
:102BA000083BFB61FB691F2BB7D83B68002B05D0A6
:102BB000FB681B791A463B68934201D1012303E06D
:102BC0003B68013B3B609EE718462037BD46BDE8A9
:102BD000908880B586B000AFF860B9607A60FB6815
:102BE0001A68BB6819027B680B4403F10053013B70
:102BF000DB0013447B614FF0AA324FF0AA337869AF
:102C000001F036FA0346002B01D0042300E0002334
:102C100018461837BD4680BD90B484B000AF7860C8
:102C200039607B681A683B68DB0213442033BB6061
:102C30000423FB600EE0BB68083BBB60BB68D3E9C4
:102C40000034B4F1FF3F08BFB3F1FF3F06D1FB688A
:102C5000013BFB60FB68002BEDD100E000BFFB688F
:102C600018461037BD4690BC704790B484B000AF92
:102C7000C7E900010023FB600023BB60D7E9001215
:102C80004FF000034FF000040B0C43EA0243140C16
:102C9000C7E90034BB681A0A3B685340DBB2FB60EB
:102CA000FB681B09FA685340FB60BB681A02FB68AB
:102CB0001B035A40FB685B015340FA685340BB60FA
:102CC000D7E900124FF000034FF000040B0A43EA6B
:102CD0000263140AC7E90034BB681A0A3B68534010
:102CE000DBB2FB60FB681B09FA685340FB60BB6802
:102CF0001A02FB681B035A40FB685B015340FA68E9
:102D00005340BB60D7E900124FF000034FF00004BE
:102D10000B0A43EA0263140AC7E90034BB681A0AC3
:102D20003B685340DBB2FB60FB681B09FA68534009
:102D3000FB60BB681A02FB681B035A40FB685B011F
:102D40005340FA685340BB60D7E900124FF00003CC
:102D50004FF000040B0A43EA0263140AC7E9003487
:102D6000BB681A0A3B685340DBB2FB60FB681B0977
:102D7000FA685340FB60BB681A02FB681B035A40A9
:102D8000FB685B015340FA685340BB60D7E900120F
:102D90004FF000034FF000040B0A43EA0263140AE9
:102DA000C7E90034BB681A0A3B685340DBB2FB60DA
:102DB000FB681B09FA685340FB60BB681A02FB689A
:102DC0001B035A40FB685B015340FA685340BB60E9
:102DD000D7E900124FF000034FF000040B0A43EA5A
:102DE0000263140AC7E90034BB681A0A3B685340FF
:102DF000DBB2FB60FB681B09FA685340FB60BB68F1
:102E00001A02FB681B035A40FB685B015340FA68D7
:102E10005340BB60BB689BB218461037BD4690BCA0
:102E20007047000080B586B004AF0023FB7100231B
:102E3000029300230193012300932E4B00220021D3
:102E400002200EF0D3F801230293062301930123FD
:102E50000093294B0022002102200EF0C7F8012325
:102E600002930623019300230093244B00220021A8
:102E700002200EF0BBF8022000F0AAFF012000F0B3
:102E8000A7FF0121002001F011F8002000F0BAFB9B
:102E900000F0AAFB0346184600F052F80346FB7107
:102EA000174B1B681748984700F0BEFB0346012BE1
:102EB00017D1FB79002B09D1134B002200210020F0
:102EC0000EF094F80346002BF6D10AE0FB7900934C
:102ED0000E4B0022002100200EF088F80346002B44
:102EE000F4D10B4A002101200EF0A0FC00BF0837EE
:102EF000BD4680BDD02D0108F02D0108102E01081F
:102F00006038010888340108302E0108542E010869
:102F1000A531000880B582B000AF0346FB80FB8876
:102F2000012B02D0022B05D005E0002101200EF07C
:102F30009DFC00E000BF00BF0837BD4680BD00001B
:102F4000B0B5BEB000AF0346FB7107F1E803002245
:102F50001A605A609A6007F1E802FB791146184638
:102F600000F09AFB0023A7F8F630FB79072B00F25C
:102F7000F68001A252F823F0992F0008C12F000813
:102F800005300008493000088B300008CD300008BB
:102F90000F310008373100087A4B07F1CC041D4689
:102FA0000FCD0FC495E8070084E8070007F1CC03B4
:102FB0001846FDF7E5F80346A7F8F63000BFDBE05A
:102FC000714B07F1B0041D460FCD0FC495E8070003
:102FD00084E8070007F1B0031846FDF7D1F803466F
:102FE000A7F8F630B7F8F630002B40F0BC8007F1B8
:102FF000E80301211846FDF7FDF90346A7F8F6306E
:1030000000BFB0E0614B07F194041D460FCD0FC423
:1030100095E8070084E8070007F194031846FDF7D8
:10302000AFF80346A7F8F630B7F8F630002B40F0BB
:103030009C8007F1E80300211846FDF7DBF9034601
:10304000A7F8F63000BF90E0514B07F178041D4619
:103050000FCD0FC495E8070084E8070007F1780357
:103060001846FDF78DF80346A7F8F630B7F8F630A6
:10307000002B7CD107F1E80300211846FDF7BAF9CF
:103080000346A7F8F63000BF71E0424B07F15C043D
:103090001D460FCD0FC495E8070084E8070007F12F
:1030A0005C031846FDF76CF80346A7F8F630B7F84E
:1030B000F630002B5DD107F1E80301211846FDF73A
:1030C00099F90346A7F8F63000BF52E0324B07F1FA
:1030D00040041D460FCD0FC495E8070084E80700A3
:1030E00007F140031846FDF74BF80346A7F8F63002
:1030F000B7F8F630002B3ED107F1E803002118465F
:10310000FDF778F90346A7F8F63000BF33E0234B0C
:1031100007F124041D460FCD0FC495E8070084E88D
:10312000070007F124031846FDF72AF80346A7F81D
:10313000F63000BF20E01A4B07F108041D460FCD02
:103140000FC495E8070084E8070007F10803184654
:10315000FDF716F80346A7F8F63000BF0CE0102381
:10316000A7F8F63008E000BF06E000BF04E000BFAB
:1031700002E000BF00E000BFB7F8F6301846F837AD
:10318000BD46B0BD7C2E0108982E0108B42E010862
:10319000D02E0108EC2E0108082F0108242F010869
:1031A000402F010890B593B002AF5A4A07F12403AB
:1031B00007CA83E8070007F11C0300221A605A605F
:1031C0000023FB6300F0F8FC03461B127B8700F032
:1031D0006DFD03463B8701237B6300237B86002331
:1031E0003B863B1D184601F0ADFC7B684A491846FA
:1031F000FEF790FE034649491846FEF73FFF034697
:103200001846FEF7D7FF03467B86FB681846FEF795
:10321000D1FF03463B86B7F93A303A8F01920093CB
:103220003F4B0122002101200DF0E0FE3B8F642284
:1032300002FB03F33B4A82FB03121A44D212DB1750
:10324000D11AFB6B5A1CFA63CAB207F140010B4456
:1032500003F81C2C7B8E1B0A99B2FB6B5A1CFA6379
:10326000CAB207F140010B4403F81C2CFB6B5A1C3B
:10327000FA637A8ED2B207F140010B4403F81C2C9A
:10328000B7F93A301B1219B2FB6B5A1CFA63CAB277
:1032900007F140010B4403F81C2CFB6B5A1CFA632A
:1032A0007A8FD2B207F140010B4403F81C2C3B8EFD
:1032B0001B0A99B2FB6B5A1CFA63CAB207F14001B0
:1032C0000B4403F81C2CFB6B5A1CFA633A8ED2B2E7
:1032D00007F140010B4403F81C2C022000F0B2FD62
:1032E000FB6BD9B27B6BDCB207F11C0207F1240047
:1032F000002300932346FCF7FEFF022000F0BCFDF4
:10330000094B0022002101200DF070FE00BF443760
:10331000BD4690BD902F01080000C842000020412A
:103320005C2F0108EF09E09E882F010880B400AFF0
:10333000034B00221A6000BFBD4680BC704700BF2F
:103340000005002080B400AF024B1B681846BD4644
:1033500080BC70470005002080B483B000AF786067
:10336000034B01221A6000BF0C37BD4680BC70477A
:103370000005002080B500AF04F0A2FF0B4900203B
:10338000FFF7C6F80346002B0BD008490120FFF7D2
:10339000BFF80346002B02D100F00AF801E000F06C
:1033A000E1FF04F0AFFF00BF80BD00BF00D0010807
:1033B00080B58AB000AF5D4A07F11C0307CA83E8F5
:1033C00007005A4A07F1100307CA83E80700574A63
:1033D0003B1D07CA83E8070004F072FF00210A20A2
:1033E00000F012FB01210B2000F00EFB0D210C2040
:1033F00000F00AFB16210D2000F006FB0D210E2027
:1034000000F002FB0D210F2000F0FEFA1621102023
:1034100000F0FAFA0C21112000F0F6FA0D2112202A
:1034200000F0F2FA0D21132000F0EEFA0021142032
:1034300000F0EAFA0021152000F0E6FA012116203A
:1034400000F0E2FA0021172000F0DEFA0021182037
:1034500000F0DAFAFB691946192000F0D5FA3B6A48
:1034600019461A2000F0D0FA7B6A19461B2000F09A
:10347000CBFA3B6919461C2000F0C6FA7B69194655
:103480001D2000F0C1FABB6919461E2000F0BCFAED
:1034900000211F2000F0B8FA4FF08041202000F0FA
:1034A000B3FA0021212000F0AFFA7B6819462220F0
:1034B00000F0AAFABB681946232000F0A5FAFB68C1
:1034C0001946242000F0A0FAFF21012000F09CFA08
:1034D0000F21022000F098FA0021032000F094FA56
:1034E0000021042000F090FAFF21052000F08CFA62
:1034F0000021062000F088FA0021072000F084FA5D
:103500000021082000F080FA0021092000F07CFA58
:103510000021252000F078FA0021262000F074FA1E
:1035200004F0F0FE00BF2837BD4680BD9C2F010887
:1035300080B584B000AF0346FB71FB79072B4BD8F5
:1035400001A252F823F000BF693500087735000862
:103550008535000893350008A1350008AF3500080F
:10356000BD350008CB35000807F10C0319460C20C7
:1035700000F062FA31E007F10C0319460D2000F06B
:103580005BFA2AE007F10C0319460E2000F054FA0A
:1035900023E007F10C0319460F2000F04DFA1CE060
:1035A00007F10C031946102000F046FA15E007F168
:1035B0000C031946112000F03FFA0EE007F10C034E
:1035C0001946122000F038FA07E007F10C031946FB
:1035D000132000F031FA00E000BFFB685BB2184630
:1035E0001037BD4680BD00BF80B582B000AF3B1D27
:1035F0001946142000F020FA7B68DBB21846083721
:10360000BD4680BD80B582B000AF0346FB7104F0BB
:1036100057FEFB791946142000F0F6F904F072FE0B
:1036200000BF0837BD4680BD80B582B000AF3B1DEE
:1036300019460B2000F000FA7B68DBB21846083709
:10364000BD4680BD80B582B000AF3B1D1946152038
:1036500000F0F2F97B68DBB218460837BD4680BD42
:1036600080B582B000AF3B1D1946252000F0E4F97B
:103670007B68DBB218460837BD4680BD80B582B096
:1036800000AF3B1D1946262000F0D6F97B68DBB25F
:1036900018460837BD4680BD80B582B000AF0346EE
:1036A0003960FB71FB79072B67D801A252F823F030
:1036B0007B370008D1360008F336000815370008BC
:1036C00037370008593700087B3700087B37000878
:1036D0003968162000F0B0F93B680433194617200A
:1036E00000F0AAF93B6808331946182000F0A4F945
:1036F00044E03968192000F09FF93B68043319460B
:103700001A2000F099F93B68083319461B2000F095
:1037100093F933E039681C2000F08EF93B680433DC
:1037200019461D2000F088F93B68083319461E2011
:1037300000F082F922E039681F2000F07DF93B6833
:1037400004331946202000F077F93B680833194606
:10375000212000F071F911E03968222000F06CF9A5
:103760003B6804331946232000F066F93B680833B0
:103770001946242000F060F900E000BF00BF0837C0
:10378000BD4680BD80B586B000AF7860396001234A
:10379000FB7500233B6107F10C031946012000F083
:1037A0004BF9F9683B695A1C3A611A467B68134425
:1037B000CAB21A7007F10C031946022000F03CF956
:1037C000F9683B695A1C3A611A467B681344CAB2CD
:1037D0001A7007F10C031946032000F02DF9F9685F
:1037E0003B695A1C3A611A467B681344CAB21A7084
:1037F00007F10C031946042000F01EF9F9683B6933
:103800005A1C3A611A467B681344CAB21A7007F10F
:103810000C031946052000F00FF9F9683B695A1CA2
:103820003A611A467B681344CAB21A703B693A6817
:103830009A4201D00023FB75FB7D18461837BD4620
:1038400080BD80B584B000AF786039600123FB7320
:103850000023BB6004F034FDBB685A1CBA601A46F2
:103860007B6813441B781946012000F0CDF8BB6833
:103870005A1CBA601A467B6813441B78194602200A
:1038800000F0C2F8BB685A1CBA601A467B68134441
:103890001B781946032000F0B7F8BB685A1CBA60C1
:1038A0001A467B6813441B781946042000F0ACF8D4
:1038B000BB685A1CBA601A467B6813441B781946C9
:1038C000052000F0A1F804F01DFDBB683A689A429B
:1038D00001D00023FB73FB7B18461037BD4680BD2B
:1038E00080B586B000AF786039600123FB75002396
:1038F0003B6107F10C031946062000F09DF8F968BA
:103900003B695A1C3A611A467B681344CAB21A7062
:1039100007F10C031946072000F08EF8F9683B699F
:103920005A1C3A611A467B681344CAB21A7007F1EE
:103930000C031946082000F07FF8F9683B695A1C0F
:103940003A611A467B681344CAB21A7007F10C0335
:103950001946092000F070F8F9683B695A1C3A6171
:103960001A467B681344CAB21A703B693A689A4295
:1039700001D00023FB75FB7D18461837BD4680BD7E
:1039800080B584B000AF786039600123FB730023F9
:10399000BB6004F095FCBB685A1CBA601A467B6891
:1039A00013441B781946062000F02EF8BB685A1CF9
:1039B000BA601A467B6813441B781946072000F04A
:1039C00023F8BB685A1CBA601A467B6813441B78FC
:1039D0001946082000F018F8BB685A1CBA601A464D
:1039E0007B6813441B781946092000F00DF804F099
:1039F00089FCBB683A689A4201D00023FB73FB7BC9
:103A000018461037BD4680BD80B582B000AF034672
:103A10003960FB71FB799BB23A6819460020FEF7CA
:103A2000C3FD0346022B03D100210020FEF71EFE3A
:103A300000BF0837BD4680BD80B582B000AF0346E9
:103A40003960FB71FB799BB23A6819460020FEF79A
:103A500093FD00BF0837BD4680BD80B485B000AF80
:103A600078604FF0B0431A6E4FF0B0417B6813435B
:103A70000B664FF0B0431A6E7B681340FB60FB6827
:103A800000BF1437BD4680BC704780B483B000AF20
:103A900078604FF0B0431A6E7B68DB434FF0B04163
:103AA00013400B6600BF0C37BD4680BC704700005A
:103AB00080B500AF234B244A1A60224B4FF00042DE
:103AC0005A60204B00229A601E4B0022DA601D4B88
:103AD00000221A611B4B04225A611A4B00221A76EB
:103AE000184B00225A76174B00229A76154B01226A
:103AF000DA61144B002283F82020124B00225A6214
:103B0000104B00229A620F4B002283F82C200D4BA1
:103B10004FF480521A630B4B07225A63094B07225A
:103B20009A63084B002283F83C20064B0022DA649B
:103B3000044802F0EFFF0346002B01D000F012FC16
:103B400000BF80BD600C00200024014080B582B021
:103B500000AF78607B681B68054A934203D14FF43D
:103B60000070FFF77AFF00BF0837BD4680BD00BF79
:103B70000024014080B582B000AF78607B681B688C
:103B8000054A934203D14FF40070FFF77EFF00BF58
:103B90000837BD4680BD00BF0024014080B400AF9F
:103BA000034B044A1A6000BFBD4680BC704700BF8B
:103BB000600C00200024014080B586B002AF0023D5
:103BC000FB810023BB6000F071F80346FB803048A6
:103BD00000F0A0F8B8602F4B1A882F4B1B889A4230
:103BE00026D02C4B1A882C4B1B889A421CD0FB8861
:103BF000BA6802FB03F39B08284AA2FB03235B0974
:103C00001A46254B1B88D31A642202FB03F2214B70
:103C10001B881946204B1B88CB1A92FBF3F39BB2EF
:103C20001E339BB21BB201E047F6FF73FB811CE021
:103C3000FB88BA6802FB03F2194BA3FB0213D21AEA
:103C400052081344DB0A4FF47A7202FB03F3A3F524
:103C50003923A3F50C63134A82FB03129212DB177C
:103C6000D31A9BB21E339BB2FB81B7F90E3000937F
:103C70000D4B0122002101200DF0B8F9B7F90E30EB
:103C80001B02FB81B7F90E3018461037BD4680BDC8
:103C9000001000B0C875FF1FA875FF1F9F00EE0938
:103CA00001011000AD8BDB68A82F010880B582B040
:103CB00000AF0023FB8000233B60134800F02AF88C
:103CC00038603B68002B02D10023FB8016E00F4BCD
:103CD0001B884FF6FF7293420BD00C4B1B881A4681
:103CE00040F6E44303FB02F23B68B2FBF3F3FB80D4
:103CF00004E0074A3B68B2FBF3F3FB80FB881846FD
:103D00000837BD4680BD00BF002000B4AA75FF1F64
:103D1000D8084C0080B586B000AF786000237B6186
:103D200007F1080300221A605A609A60FFF7C0FE8C
:103D30001A4803F0B4FC0346002B01D000F012FB3C
:103D40007B68BB600023FB6000233B6107F1080335
:103D50001946124803F032FA0346002B01D000F056
:103D600001FB0E4803F016F90346002B01D000F0CA
:103D7000F9FA4FF0FF31094803F084F9074803F0DE
:103D80004FF9064803F00EFA7861044803F086F80C
:103D90007B6918461837BD4680BD00BF600C002007
:103DA00080B485B000AF78604FF0B043DA6C4FF06C
:103DB000B0417B681343CB644FF0B043DA6C7B684F
:103DC0001340FB60FB6800BF1437BD4680BC7047E2
:103DD00080B588B000AF0346FB7107F10C030022E9
:103DE0001A605A609A60DA601A610220FFF7D8FF01
:103DF000FB79124A32F81330FB6001233B61002348
:103E00007B610223BB61FB790D4A52F8233007F135
:103E10000C021146184604F035FCFB79084A52F8AA
:103E20002300FB79054A32F813300022194604F0CA
:103E300053FE002318462037BD4680BD00340108DC
:103E40002000002080B582B000AF0346FB71FB79F3
:103E5000074A52F82300FB79064A32F81330012250
:103E6000194604F039FE002318460837BD4680BDC8
:103E7000200000200034010880B582B000AF034666
:103E8000FB71FB79074A52F82300FB79064A32F8A6
:103E900013300022194604F01FFE0023184608378D
:103EA000BD4680BD200000200034010880B588B0E8
:103EB00000AF03460A46FB711346BB7107F10C03C2
:103EC00000221A605A609A60DA601A61FB79002B4E
:103ED00003D10120FFF764FF0CE0FB79022B03D133
:103EE0000120FFF75DFF05E0FB79012B02D10420E3
:103EF000FFF756FFFB79284A32F81330FB600123A5
:103F00007B610223BB61BB79002B0CD100233B6199
:103F1000FB79224A52F8233007F10C021146184669
:103F200004F0B0FB33E01E4B3B61FB791B4A52F8B7
:103F3000233007F10C021146184604F0A3FBFB796D
:103F4000DB00184A9818FB79174A52F823301946B3
:103F500004F05FF9FB79DB00124A9818FB79134AE9
:103F600052F823301A46002104F03AF9FB79104A3E
:103F7000D056FB790F4A52F823300022194603F03D
:103F8000E0FCFB790A4AD356184603F0F4FC002300
:103F900018462037BD4680BD083401082C0000209B
:103FA00000002110C40C0020143401083800002047
:103FB000103401084400002080B483B000AF0346F1
:103FC000FB7100BF0C37BD4680BC704780B500AFA9
:103FD0000020FFF7F1FF00BF80BD80B500AF0120DA
:103FE000FFF7EAFF00BF80BD80B500AF0220FFF7FA
:103FF000E3FF00BF80BD80B485B000AF78604FF0B4
:10400000B0439A6C4FF0B0417B6813438B644FF020
:10401000B0439A6C7B681340FB60FB6800BF1437A9
:10402000BD4680BC704780B500AF0420FFF7E3FFBA
:104030000120FFF7E0FF002202210F2003F081FCA6
:104040000F2003F098FC00BF80BD000080B400AFDB
:10405000064B1B6903F40023B3F5002F01D10123A4
:1040600000E000231846BD4680BC70470040005861
:1040700090B587B000AFF860C7E900230123FB7556
:104080000DE000BFFFF7E2FF0346002BFAD1D7E9AE
:104090000023F968012004F0CFF80346FB75FB68A4
:1040A000D3E90034D7E90012A24208BF9942E8D10F
:1040B000FB7D002B07D0FB7D022B01D1012303E008
:1040C0004FF0FF3300E0002318461C37BD4690BD7B
:1040D00080B58AB000AFF8600B467A607B8102231E
:1040E000BB61FB68FB617B893B627B68002B08D06E
:1040F00007F11803184604F039FA034687F8273009
:104100000AE007F1140207F118031146184604F0FB
:10411000D5F9034687F8273097F82730002B08D0C9
:1041200097F82730022B01D1012303E04FF0FF3332
:1041300000E0002318462837BD4680BD80B485B016
:1041400000AF78604FF0B0439A6D4FF0B0417B689C
:1041500013438B654FF0B0439A6D7B681340FB604F
:10416000FB6800BF1437BD4680BC704780B483B085
:1041700000AF78604FF0B0439A6D7B68DB434FF03F
:10418000B04113408B6500BF0C37BD4680BC704703
:1041900080B500AF124B134A1A60114B00225A60CF
:1041A0000F4B00229A600E4B4FF6FF725A610C4B78
:1041B00000221A620A4B00225A62094B00229A62BC
:1041C000074B0022DA62064B00221A63044804F00F
:1041D00025FD0346002B01D000F0C4F800BF80BDD0
:1041E000DC0C0020007C004080B590B000AF78600F
:1041F00007F108033822002118460EF0D6F97B6833
:104200001B68114A93421BD14FF40073BB604FF0FF
:104210000C13BB6207F10803184606F067FC03465F
:10422000002B01D000F09EF84FF00040FFF786FF12
:1042300000220021272003F084FB272003F09BFBB2
:1042400000BF4037BD4680BD007C004080B582B0D5
:1042500000AF78607B681B68064A934206D14FF036
:104260000040FFF783FF272003F093FB00BF0837D0
:10427000BD4680BD007C004080B483B000AF786054
:104280004FF0B043D3F8903023F018024FF0B04114
:104290007B681343C1F8903000BF0C37BD4680BC2B
:1042A000704780B500AF02F06BFA00F005F8FEF73A
:1042B0001FF9FEF725F9FCE780B59AB000AF07F1CA
:1042C00020034822002118460EF06FF93B1D002202
:1042D0001A605A609A60DA601A615A619A61002025
:1042E000FFF7CAFF1E4B1B6823F4C0631C4A43F44C
:1042F000007313601A4B1B6803F4C0633B603B6898
:1043000024233B628123FB6201233B6400237B6403
:10431000A023BB640023FB6407F12003184605F0CB
:1043200063FC0346002B01D000F01CF84F237B6098
:104330000023BB600023FB6000233B6100237B6103
:104340000023FB613B1D0121184605F0E7FF0346F2
:10435000002B01D000F006F800BF6837BD4680BDD5
:104360000004005880B400AFFEE780B483B000AF13
:1043700078604FF0B0439A6B4FF0B0417B681343C5
:104380008B6300BF0C37BD4680BC704780B483B0E0
:1043900000AF78604FF0B0439A6B7B68DB434FF01F
:1043A000B04113408B6300BF0C37BD4680BC7047E3
:1043B00080B483B000AF7860064BD3F88020054905
:1043C0007B681343C1F8803000BF0C37BD4680BC0A
:1043D000704700BF0008005880B500AF4FF00040A4
:1043E000FFF7C3FF4FF00040FFF7D0FFFFF7D0FE0D
:1043F0004FF00050FFF7DCFF00BF80BD80B58EB0EE
:1044000000AF0F4804F0C6FC0346002B01D0FFF7B5
:10441000A9FF4FF400733B604FF440233B623B46DF
:10442000184606F063FB4FF00040FFF79EFF4FF089
:104430000040FFF7ABFF00BF3837BD4680BD00BF6F
:10444000DC0C002080B400AF4FF0B043D3F89030C4
:104450004FF0B04243F40043C2F8903000BFBD4675
:1044600080BC704780B485B000AF78604FF0B04337
:104470009A6D4FF0B0417B6813438B654FF0B043AA
:104480009A6D7B681340FB60FB6800BF1437BD4624
:1044900080BC704780B58CB000AF3B1D2C22002142
:1044A00018460EF082F8224B224A1A60204B1F2237
:1044B0009A601F4B00221A611D4B00225A611C4B4F
:1044C00000229A611A4B4FF08042DA61184B0022A9
:1044D0001A62174B4FF480725A62154806F020FC9E
:1044E0000346002B01D0FFF73DFF114806F0FAFE0E
:1044F0000346002B01D0FFF735FF00233B6200236A
:10450000BB600023BB614FF00053FB614FF480732D
:10451000FB623B1D01221946054806F07BFC034661
:10452000002B01D0FFF71EFF00BF3037BD4680BD16
:10453000180D00200028004080B590B000AF7860D2
:1045400007F108033822002118460EF02EF87B6888
:104550001B68164A934225D14FF48033BB604FF459
:104560008073FB6307F10803184606F0BFFA0346A1
:10457000002B01D0FFF7F6FEFFF764FF4FF48060D9
:10458000FFF770FF00220021022003F0DAF9022079
:1045900003F0F1F9002200212A2003F0D2F92A20A9
:1045A00003F0E9F900BF4037BD4680BD0028004058
:1045B00080B400AF034B0122C3F8882000BFBD4682
:1045C00080BC70470004005880B400AF00BFBD46F7
:1045D00080BC704780B400AF00BFBD4680BC704750
:1045E00080B500AF02F0FEF8FFF7E2FF012004F013
:1045F000EBFF00BF80BD80B500AF02F001F900F015
:10460000E9FE00BF80BD80B500AF02F0EBF80121EC
:10461000002004F055FF00BF80BD80B500AF02F060
:10462000EFF800BF80BD80B400AF00BFBD4680BCC6
:10463000704780B400AF00BFBD4680BC704780B4F7
:1046400000AFFEE780B400AFFEE780B400AFFEE746
:1046500080B400AFFEE780B400AF00BFBD4680BCB1
:10466000704780B400AF00BFBD4680BC704780B4C7
:1046700000AF00BFBD4680BC704780B500AF02F000
:104680009FF800BF80BD000080B500AF024806F073
:1046900065FE00BF80BD00BF180D002080B500AFD3
:1046A000012004F031FA00BF80BD000080B500AFEA
:1046B000024803F0F7FB00BF80BD00BFEC0D0020F7
:1046C00080B500AF024807F063FC00BF80BD00BFAB
:1046D0005C0D002080B500AF024804F07BFC00BFF9
:1046E00080BD00BFDC0C002080B500AF024806F0A2
:1046F000E5FC00BF80BD00BF180D002080B500AFF5
:10470000024807F093F900BF80BD00BF500D0020A4
:1047100080B485B000AF78604FF0B0435A6E4FF070
:10472000B0417B6813434B664FF0B0435A6E7B68D1
:104730001340FB60FB6800BF1437BD4680BC704768
:1047400080B500AF064B08221A60054806F0F2FE5D
:104750000346002B01D0FFF705FE00BF80BD00BF60
:10476000500D002080B582B000AF78600120FFF7C7
:10477000CFFF00220021322003F0E3F8322003F0C3
:10478000FAF800BF0837BD4680BD80B483B000AFE3
:1047900078604FF0B0439B6823F400424FF0B04183
:1047A0007B6813438B6000BF0C37BD4680BC7047ED
:1047B00080B485B000AF78604FF0B043DA6C4FF052
:1047C000B0417B681343CB644FF0B043DA6C7B6835
:1047D0001340FB60FB6800BF1437BD4680BC7047C8
:1047E00080B483B000AF78604FF0B043DA6C7B6880
:1047F000DB434FF0B0411340CB6400BF0C37BD46E4
:1048000080BC704780B500AF0020FFF7BEFF0DF001
:1048100097F900F04DF800F007F90CF0CBFB0F48CA
:104820000CF066FC0E4B4FF400421A61FEF7A2FD3D
:10483000FEF724FF034618460CF068FCFFF7AEF9BC
:1048400000F0A8F90CF03AFE012101200CF074FEF2
:10485000012101200CF042FE00BF80BD714800081C
:104860000040005880B500AF0CF094FE00BF80BD42
:1048700080B586B002AF7860396007F1080318464A
:104880000DF026F9BB68B7F90C200092074A1021F9
:10489000786800F069F87868FDF7B4FA03469AB2D0
:1048A0003B681A8000BF1037BD4680BDB42F010899
:1048B00080B586B000AF3B1D00221A605A609A6036
:1048C000DA601A610120FFF773FF0220FFF770FF23
:1048D0000420FFF76DFF8020FFF76AFF0323BB6012
:1048E0000023FB6049F6FF737B603B1D19464FF0C8
:1048F000904003F0C7FE4FF6FF737B603B1D1946E7
:104900000E4803F0BFFE3B1D19460D4803F0BAFEEA
:104910003B1D19460B4803F0B5FE0120FFF760FF71
:104920000220FFF75DFF0420FFF75AFF8020FFF70A
:1049300057FF00BF1837BD4680BD00BF00040048C8
:1049400000080048001C004880B500AF012102208B
:104950000CF0C4FD00BF80BD80B500AF0021022077
:104960000CF0BCFD00BF80BD0CB480B584B000AFBE
:104970007860396007F11C03FB603968FB68BA692D
:1049800078680DF07FFC00BF1037BD46BDE8804061
:1049900002B0704780B483B000AF7860002318463F
:1049A0000C37BD4680BC704780B500AF00F0E2F91F
:1049B0000346184680BD80B582B000AF78607B6842
:1049C000184600F042FA00BF0837BD4680BD80B4EB
:1049D00085B000AF78604FF0B043DA6C4FF0B04173
:1049E0007B681343CB644FF0B043DA6C7B681340B1
:1049F000FB60FB6800BF1437BD4680BC70470000F9
:104A000080B483B000AF7860064BD3F8902005499E
:104A10007B681343C1F8903000BF0C37BD4680BCA3
:104A2000704700BF0008005880B586B000AF3B1D3E
:104A300000221A605A609A60DA601A610220FFF759
:104A4000C6FF0220FFF7C3FF0220FFF7C0FF0220CE
:104A5000FFF7BDFF0123BB600123FB6003233B6124
:104A60004FF480537B603B1D1946354803F00AFE26
:104A70004FF400537B603B1D1946314803F002FEA2
:104A80004FF480437B603B1D19462D4803F0FAFD2F
:104A90004FF480637B603B1D1946294803F0F2FD0B
:104AA00000224FF48051264804F016F800224FF4FB
:104AB0000051234804F010F800224FF480412048B0
:104AC00004F00AF800224FF480611D4804F004F855
:104AD0000223BB600023FB60F0237B600D237B611E
:104AE0000120FFF774FF3B1D19464FF0904003F083
:104AF000C9FD0223BB600023FB604FF480537B6041
:104B000006237B610120FFF762FF3B1D19464FF032
:104B1000904003F0B7FD4FF080424FF080710020CD
:104B200005F03EFD4FF48040FFF76AFF01F076FE8E
:104B300001F07AFE01F07EFE00BF1837BD4680BD51
:104B40000004004880B487B000AF78600C4B7B61F4
:104B50000C4B3B610C4BFB607B687A699A607B680D
:104B60003A695A607B68FA681A607B68074ADA60BB
:104B70007B68074A1A6100BF1C37BD4680BC70477E
:104B8000000048420000904100007A440D093E00B8
:104B9000AB03050080B400AF00BFBD4680BC7047CA
:104BA00080B586B000AF7860144A154BD31A7B618C
:104BB0007B693B61134B1B68002B02D1114B124ADE
:104BC0001A60104B1A687B6813443A699A4207D2FC
:104BD0000DF0B6FC02460C2313604FF0FF3309E0E2
:104BE000084B1B68FB60074B1A687B681344054A37
:104BF0001360FB6818461837BD4680BD0080002052
:104C00000010000004050020E00E002080B483B0F6
:104C100000AF78607B689B6818460C37BD4680BC47
:104C20007047000080B582B000AF0023FB71144BC9
:104C30001B7883F00103DBB2002B1BD0114B4FF02C
:104C4000FF321A63FFF726FC00F056F84FF480712C
:104C50000C4806F0DDF90B4B4FF0FF321A630948A0
:104C600006F00EFB002000F0A3F900F05FF8044B03
:104C700001221A70FB7918460837BD4680BD00BF77
:104C800008050020180D002080B58EB000AF7860B8
:104C9000002387F8373007F108032C22002118463B
:104CA0000DF083FC00F028F8114B1B687A68134460
:104CB0007B6000237B627B68DB43FB600023FB613E
:104CC0004FF000533B624FF480733B6307F10803DE
:104CD00001221946074806F09DF80346002B01D033
:104CE000FFF740FB97F8373018463837BD4680BD90
:104CF0000C050020180D002080B582B000AF002305
:104D0000FB71084B0122DA654FF48071064806F00A
:104D10007FF9054B4FF0FF321A63FB7918460837CD
:104D2000BD4680BD00280040180D002080B500AFB2
:104D300000F05EF90246034B1A60024B1B681846EE
:104D400080BD00BF0C05002080B400AF024B1B6883
:104D50001846BD4680BC70470C05002080B500AFEA
:104D600000F046F90246024B1B68D31A184680BD74
:104D70000C05002080B500AF054B1B78002B03D03D
:104D800000F036F9034600E00023184680BD00BF5E
:104D90000805002080B400AF03231846BD4680BC40
:104DA0007047F0B583B000AF78607B684FF00004C7
:104DB0009E0D9D024FF47A724FF000032846314653
:104DC000FDF718FA03460C4618460C37BD46F0BDF1
:104DD000F0B482B000AF78607B681D464FF00006EB
:104DE0002B4634464FF000014FF00002620142EAC8
:104DF000D36259010B4614465B1B64EB06044FF06B
:104E000000014FF00002A20042EA937299000B46A3
:104E100014465B1944EB06044FF000014FF000020A
:104E2000E20042EA5372D9000B4614461946224664
:104E30004FF000034FF000048B0A43EA8253940AB8
:104E400018460837BD46F0BC704780B584B000AF47
:104E500078607868FFF7A5FFF86000F0C9F8B860DF
:104E600000E000BF00F0C4F80246BB68D31AFA683D
:104E70009A42F6D800BF1037BD4680BD80B582B0DB
:104E800000AF78600CF0A8FF00BF0837BD4680BDBA
:104E900080B584B000AF786000F09AF8F860FB68E5
:104EA0000133184600F084F800BF1037BD4680BDBE
:104EB0002DE9904888B000AF786000F099F8F8616B
:104EC00000F086F8B861BB6919464FF000024FF058
:104ED000000B4FF0000C8C464FF0000BFA691146A6
:104EE0004FF000021BEB01034CEB0204C7E9043452
:104EF000D7E904124FF000034FF000048B0A43EA95
:104F00008253940AFB603B699B464FF0000C40F2D1
:104F1000FF314FF000020BEA01030CEA0204C7E97B
:104F200004343B691846FFF753FF03469AB27B6887
:104F30001A80FB6818462037BD46BDE890880000FF
:104F400080B582B000AF78607A680021034806F02F
:104F500029FA00BF0837BD4680BD00BF180D0020EC
:104F600080B582B000AF78607A680121034806F00E
:104F700019FA00BF0837BD4680BD00BF180D0020DC
:104F800080B500AF0021034806F024FA0346184616
:104F900080BD00BF180D002080B500AF012103487F
:104FA00006F018FA0346184680BD00BF180D002011
:104FB00080B582B000AF78607A680221034806F0BD
:104FC000F1F900BF0837BD4680BD00BF180D0020B5
:104FD00080B582B000AF0221044806F0FBF978608A
:104FE0007B6818460837BD4680BD00BF180D0020FD
:104FF00080B500AF0348FFF709FE0346DB431846C0
:1050000080BD00BF0028004080B485B000AF78604C
:105010004FF0B043DA6C4FF0B0417B681343CB6480
:105020004FF0B043DA6C7B681340FB60FB6800BF55
:105030001437BD4680BC704780B485B000AF78603F
:105040004FF0B043DA6D4FF0B0417B681343CB654E
:105050004FF0B043DA6D7B681340FB60FB6800BF24
:105060001437BD4680BC704780B483B000AF786011
:105070004FF0B043DA6D7B68DB434FF0B041134033
:10508000CB6500BF0C37BD4680BC704780B500AF14
:10509000234B244A1A60224B4FF416525A60204B7D
:1050A00000229A601E4B0022DA601D4B00221A611A
:1050B0001B4B0C225A611A4B00229A61184B00229A
:1050C0001A62174B00225A62154B00229A62144B47
:1050D0004FF000525A66124806F05BFE0346002B62
:1050E00001D0FFF73FF900210D4808F0C1FA03464F
:1050F000002B01D0FFF736F90021094808F0F6FA35
:105100000346002B01D0FFF72DF9054808F075FA8A
:105110000346002B01D0FFF725F900BF80BD00BF7B
:105120005C0D00200080004080B596B000AF786034
:1051300007F1440300221A605A609A60DA601A612B
:1051400007F10C033822002118460DF02EFA7B6877
:105150001B68334A93425FD12023FB604FF44063C6
:10516000FB6107F10C03184605F0C0FC0346002B59
:1051700001D0FFF7F7F80120FFF75EFF0120FFF7EE
:1051800043FF0C237B640223BB640023FB640323E3
:105190003B6508237B6507F1440319464FF09040B7
:1051A00003F070FA1F4B204A1A601E4B16225A60F9
:1051B0001C4B10229A601B4B0022DA60194B802294
:1051C0001A61184B00225A61164B00229A61154B46
:1051D0000022DA61134B00221A62124802F0E8FB47
:1051E0000346002B01D0FFF7BDF810210D4802F057
:1051F0001FFF0346002B01D0FFF7B4F87B68094A74
:105200009A67084A7B68936200220221262002F0F6
:1052100098FB262002F0AFFB00BF5837BD4680BD8B
:1052200000800040EC0D00205800024080B582B0A4
:1052300000AF78607B681B680B4A93420FD1012056
:10524000FFF712FF0C214FF0904003F079FB7B68D1
:105250009B6F184602F054FC262002F09AFB00BF18
:105260000837BD4680BD00BF0080004080B483B0D9
:1052700000AF78604FF0B043DA6B4FF0B0417B681D
:105280001343CB6300BF0C37BD4680BC704780B46E
:1052900083B000AF78604FF0B043DA6B7B68DB43DC
:1052A0004FF0B0411340CB6300BF0C37BD4680BC0C
:1052B0007047000080B483B000AF7860064BD3F82D
:1052C000802005497B681343C1F8803000BF0C374C
:1052D000BD4680BC704700BF0008005880B582B052
:1052E00000AF7860074A7B681360FEF79CFEFFF70B
:1052F000CDFE4FF08050FFF7DDFF00231846083742
:10530000BD4680BD1005002080B500AF0120FFF72D
:10531000ADFF0120FFF7BBFF0448FFF787FF0F2019
:1053200002F037FB0023184680BD00BF5C0D002053
:1053300080B582B000AF78600B467B807B881A46D0
:105340007968044806F0A4FD002318460837BD46D6
:1053500080BD00BF5C0D002080B584B000AF7860D8
:10536000194A7B6813604FF40013BB6007F1080310
:1053700093E80600154808F0C4F800BF134B1B68FB
:10538000DB6903F48033B3F5803FF7D000BF0F4BE8
:105390001B68DB6903F48003B3F5800FF7D10B4B77
:1053A0001B689A68094B1B6842F480029A600748A0
:1053B00008F002F901220649044806F03AFD0023EC
:1053C00018461037BD4680BD140500205C0D002036
:1053D0004C0E002080B500AF044802F0E9FA034605
:1053E000002B01D0FEF7BEFF00BF80BDEC0D0020FA
:1053F00080B582B000AF7860034B1B6800209847EF
:1054000000BF0837BD4680BD1005002080B582B0C2
:1054100000AF78600B4B1B68002B0AD07B68D3F879
:105420008C30002B05D1074B1B6800220121064858
:10543000984701220449786806F0FBFC00BF083752
:10544000BD4680BD140500204C0E00200D48854649
:1054500001F065F90C480D490D4A002302E0D458CB
:10546000C4500433C4188C42F9D30A4A0A4C0023AE
:1054700001E013600432A242FBD30DF067F8FEF79F
:1054800010FFFEE700800020000000200001002047
:10549000203A010800010020E00E0020FEE7000095
:1054A00080B485B000AF03463960FB800023FB81E8
:1054B000FB88C82B03D83B68054A1A6001E011231A
:1054C000FB81FB89DBB218461437BD4680BC7047B0
:1054D0002005002080B483B000AF78600023184618
:1054E0000C37BD4680BC704780B588B002AFF8600D
:1054F000B9607A600023FB75FEF7D8FB03461A46B5
:10550000FB681A80BB6800221A80FEF755FB034631
:105510001A4613469B0013445B001B121AB27B68A9
:105520001A807B68B3F9003000930A4B01220021F6
:1055300002200BF05BFDFB681B880093064B0022EA
:10554000002102200BF052FDFB7D18461837BD46A6
:1055500080BD00BFC02F0108CC2F010880B584B0EA
:1055600000AF0346FB710023FB81FEF73DF80346C5
:105570007B73FB79032B44D801A252F823F000BFC0
:1055800091550008CB550008EF550008F955000863
:105590007B7B022B05D07B7B032B02D07B7B052BF7
:1055A00003D1012000F06AF90EE07B7B012B02D0D1
:1055B0007B7B042B04D14FF4AB7000F05FF903E068
:1055C000FA2000F05BF91FE01EE07B7B022B05D088
:1055D0007B7B032B02D07B7B052B03D1012000F0CA
:1055E0004DF911E04FF4397000F048F90CE040F249
:1055F000AA5000F043F907E04FF4AF7000F03EF915
:1056000002E01423FB8100BFFB89DBB21846103790
:10561000BD4680BD80B582B000AF78600421786857
:10562000FEF75EF90346012B01D0162300E00023AC
:1056300018460837BD4680BD80B582B000AF78609F
:1056400004217868FEF79CF90346012B01D017234B
:1056500000E0002318460837BD4680BD80B584B001
:1056600002AF0346FB80FB8800930F4B0122002111
:1056700002200BF0BBFC002300930C4B00224FF0E8
:10568000FF310B480CF06CFA09480CF00BFBFB885F
:10569000194607480CF076FB05480CF097FA0023F2
:1056A00018460837BD4680BDDC2F01085933000875
:1056B0001806002080B586B002AF78607B684FF492
:1056C0007A7202FB03F3FB607B6800930E4B0122AE
:1056D000002102200BF08AFC002300930B4B0022D8
:1056E0004FF0FF310A480CF03BFA09480CF0DAFAA7
:1056F000F96807480CF046FB05480CF067FA0023F0
:1057000018461037BD4680BDFC2F01080D59000812
:105710000006002080B500AF054B012200210220C9
:105720000BF064FC03480CF0BDFA0023184680BD62
:105730001C3001080006002080B500AF054B012297
:10574000002102200BF052FC03480CF0ABFA0023BE
:10575000184680BD2C3001081806002080B500AF27
:10576000054B0122002102200BF040FC01200CF02F
:10577000E1F80023184680BD3C30010880B586B0B2
:1057800004AF03460A46FB711346BB802B4B1B68D4
:1057900001332A4A1360FB79012B27D10120FEF740
:1057A00051FB3220FFF707F90120FEF765FB244B80
:1057B0001B680133224A1360B7F904301F4A12688C
:1057C0001E4908681E490968411A642000FB01F05F
:1057D0001A49096890FBF1F1029101920093194B6B
:1057E0000122002103200BF001FC21E00220FEF742
:1057F00029FB3220FFF7DFF80220FEF73DFBB7F967
:1058000004300E4A12680D4908680D490968411AAA
:10581000642000FB01F00949096890FBF1F1029155
:1058200001920093084B0122002103200BF0DEFBC4
:10583000002318460837BD4680BD00BF180500206C
:105840001C050020503001088430010880B483B06A
:1058500000AF786039607B68074A1A603B68002BAC
:1058600001D11E2303E03B680D221A700023184665
:105870000C37BD4680BC70475000002080B584B016
:1058800002AF78607B680093164B01220021022052
:105890000BF0ACFB7B68052B16D900230093124B51
:1058A00000224FF0FF3111480CF05AF90F480CF06C
:1058B000F9F979680D480CF065FA0C480CF086F996
:1058C00004200CF037F802E07868FFF774F8084B12
:1058D0000122002102200BF089FB00BF0837BD46E2
:1058E00080BD00BFB8300108F5580008E805002069
:1058F000C830010880B582B000AF786004200BF09A
:10590000DFFF00BF0837BD4680BD000080B582B014
:1059100000AF786001200BF0D3FF054B012200217E
:1059200002200BF063FB00BF0837BD4680BD00BFFF
:10593000D430010880B483B000AF786039607B68F0
:105940003A689A6100BF0C37BD4680BC704780B48E
:1059500083B000AF786039607B683A689A6200BFB4
:105960000C37BD4680BC704780B582B000AF786010
:10597000104A7B681360FEF72FFD0F4B01220021B8
:1059800002200BF033FB0D4B9B6C40F69B009847BD
:1059900003461A460A4B1A70084B5B6C002140F60E
:1059A0009B009847012108200BF098FD00BF0837A5
:1059B000BD4680BD4C060020EC300108603801086F
:1059C0003006002080B500AF00F0D8F8FEF716FDD5
:1059D000002108200BF082FD074B5B6C074A127810
:1059E000114640F69B009847054B012200210220FA
:1059F0000BF0FCFA00BF80BD6038010830060020C3
:105A0000F830010880B500AF054B00221A70054B35
:105A10005B6E00209847024B01221A7000BF80BDC8
:105A20005D0000206038010880B400AF00BFBD46B3
:105A300080BC704780B582B000AF7860064B002212
:105A40001A70064BDB6878689847034B01221A707E
:105A500000BF0837BD4680BD5D00002060380108EA
:105A600080B500AF00F07AF800BF80BD80B500AF10
:105A700000F084F800BF80BD80B588B004AFF86046
:105A8000B9607A603B60FB68002B12D10220FEF700
:105A9000D9F93B6802937B680193BB680093104B74
:105AA0000122002103200BF0A1FA0220FEF7E4F905
:105AB00011E00220FEF7C6F93B6802937B68019370
:105AC000BB680093074B0122002103200BF08EFAE4
:105AD0000220FEF7D1F900BF1037BD4680BD00BFE0
